S016000050697374615F70616E636164616F2E7372656377
S11300000C9434000C943E000C943E000C9440007C
S11300100C943E000C943E000C943E000C943E0064
S11300200C943E000C943E000C943E000C943E0054
S11300300C943E000C943E000C943E000C943E0044
S11300400C943E000C943E000C943E000C943E0034
S11300500C943E000C943E000C943E000C943E0024
S11300600C943E000C943E0011241FBECFEFD8E048
S1130070DEBFCDBF0E9465000C9477000C94000095
S11300801F920F920FB60F9211248F939F9318997A
S113009004C095B182E0892785B983B183B19F916A
S11300A08F910F900FBE0F901F90189588E084B920
S11300B097E095B9E8E6F0E08081816080838AE08A
S11300C08093690090936B0008950E9456000E94EB
S11300D06B007894FFCF1092C50087E68093C4002C
S11300E088ED8093C1008EE08093C2000895F89457
S10500F0FFCF3C
S9030000FC
